:020000040800F2
:10000000000002204DAB0008B52A0008B72A0008FE
:10001000B92A0008BB2A0008BD2A00080000000019
:10002000000000000000000000000000BF2A0008DF
:10003000C12A000800000000C32A0008C52A0008E1
:100040009DAB00089DAB00089DAB00089DAB000870
:100050009DAB00089DAB00089DAB00089DAB000860
:100060009DAB00089DAB00089DAB0008CD2A0008A1
:10007000CF2A00089DAB00089DAB00089DAB00088F
:100080009DAB00089DAB00089DAB00089DAB000830
:10009000D12A00089DAB00089DAB0008E12A0008AA
:1000A0009DAB00089DAB00089DAB00089DAB000810
:1000B0009DAB00089DAB00089DAB00089DAB000800
:1000C0009DAB00089DAB00089DAB00089DAB0008F0
:1000D0009DAB00089DAB00089DAB00089DAB0008E0
:1000E000F92A00089DAB00089DAB00089DAB0008F5
:1000F0009DAB00089DAB00089DAB00089DAB0008C0
:100100009DAB00089DAB00089DAB00089DAB0008AF
:100110009DAB00089DAB0008152B00089DAB0008A7
:100120009DAB00089DAB00089DAB00089DAB00088F
:100130009DAB00089DAB00089DAB00089DAB00087F
:100140009DAB00089DAB00089DAB00089DAB00086F
:100150009DAB00089DAB00089DAB00089DAB00085F
:100160009DAB00089DAB00089DAB00089DAB00084F
:100170009DAB00089DAB00089DAB00089DAB00083F
:100180009DAB00089DAB00089DAB00089DAB00082F
:100190009DAB0008000000009DAB00089DAB00086F
:1001A0009DAB00089DAB00089DAB00089DAB00080F
:1001B0009DAB00089DAB00089DAB00089DAB0008FF
:1001C0009DAB00089DAB00089DAB00089DAB0008EF
:0801D0009DAB00089DAB000887
:1001E00010B5054C237833B9044B13B10448AFF371
:1001F00000800123237010BDEC03002000000000EC
:1002000070BB000808B5034B1BB103490348AFF3AB
:10021000008008BD00000000F003002070BB000853
:1002200001F0FF01102A2BDB10F0070F08D010F8A7
:10023000013B013A8B422DD010F0070F42B3F6D1AB
:10024000F0B441EA012141EA014122F007047FF0C4
:1002500000070023F0E80256083C85EA010586EA1B
:10026000010685FA47F5A3FA87F586FA47F6A5FA57
:1002700087F68EB9EED1F0BC01F0FF0102F0070263
:1002800032B110F8013B013A83EA010313B1F8D10E
:100290000020704701387047002D06BF35460338EF
:1002A000073815F0010F07D1013015F4807F02BF28
:1002B000013015F4C03F0130F0BC0138704700BF79
:1002C00053B94AB9002908BF00281CBF4FF0FF31BD
:1002D0004FF0FF3000F074B9ADF1080C6DE904CEB9
:1002E00000F006F8DDF804E0DDE9022304B0704711
:1002F0002DE9F047089D04468E46002B4DD18A42D9
:10030000944669D9B2FA82F252B101FA02F3C2F10B
:10031000200120FA01F10CFA02FC41EA030E94409C
:100320004FEA1C48210CBEFBF8F61FFA8CF708FBBD
:1003300016E341EA034306FB07F199420AD91CEB95
:10034000030306F1FF3080F01F81994240F21C81C7
:10035000023E63445B1AA4B2B3FBF8F008FB10330F
:1003600044EA034400FB07F7A7420AD91CEB040444
:1003700000F1FF3380F00A81A74240F20781644414
:10038000023840EA0640E41B00261DB1D440002399
:10039000C5E900433146BDE8F0878B4209D9002DFD
:1003A00000F0EF800026C5E9000130463146BDE887
:1003B000F087B3FA83F6002E4AD18B4202D38242F1
:1003C00000F2F980841A61EB030301209E46002DA0
:1003D000E0D0C5E9004EDDE702B9FFDEB2FA82F2F5
:1003E000002A40F09280A1EB0C014FEA1C471FFA53
:1003F0008CFE0126200CB1FBF7F307FB131140EA3A
:1004000001410EFB03F0884208D91CEB010103F106
:10041000FF3802D2884200F2CB804346091AA4B2C8
:10042000B1FBF7F007FB101144EA01440EFB00FE9C
:10043000A64508D91CEB040400F1FF3102D2A64501
:1004400000F2BB800846A4EB0E0440EA03409CE7A0
:10045000C6F12007B34022FA07FC4CEA030C20FA4D
:1004600007F401FA06F31C43F9404FEA1C4900FA6D
:1004700006F3B1FBF9F8200C1FFA8CFE09FB1811EA
:1004800040EA014108FB0EF0884202FA06F20BD95D
:100490001CEB010108F1FF3A80F08880884240F2AD
:1004A0008580A8F102086144091AA4B2B1FBF9F0F1
:1004B00009FB101144EA014100FB0EFE8E4508D9EC
:1004C0001CEB010100F1FF346CD28E456AD9023871
:1004D000614440EA0840A0FB0294A1EB0E01A14256
:1004E000C846A64656D353D05DB1B3EB080261EBC4
:1004F0000E0101FA07F722FA06F3F1401F43C5E99E
:10050000007100263146BDE8F087C2F12003D840D3
:100510000CFA02FC21FA03F3914001434FEA1C4715
:100520001FFA8CFEB3FBF7F007FB10360B0C43EA07
:10053000064300FB0EF69E4204FA02F408D91CEBB7
:10054000030300F1FF382FD29E422DD902386344B5
:100550009B1B89B2B3FBF7F607FB163341EA034155
:1005600006FB0EF38B4208D91CEB010106F1FF38A4
:1005700016D28B4214D9023E6144C91A46EA00469B
:1005800038E72E46284605E70646E3E61846F8E62D
:100590004B45A9D2B9EB020864EB0C0E0138A3E776
:1005A0004646EAE7204694E74046D1E7D0467BE757
:1005B000023B614432E7304609E76444023842E7CF
:1005C000704700BF00B583B0019201231A4602F0C4
:1005D000BBFE012101A802F06FFE03B05DF804FB31
:1005E00010B582B0BDF81040009402F09DFF0020CD
:1005F00002B010BD00211CE001EB011042001A44C2
:100600000E484FF0010C20F812C00133212B0FDCF3
:10061000002BF1D0212BEFD01829EDD001EB0110E8
:1006200042001A4405484FF0000C20F812C0ECE7D5
:100630000131182901DC0023E8E770470804002095
:10064000002304E0034A002142F823100133172B52
:10065000F8DD7047AC0A002084B0F8B506AC84E839
:100660000F00002726E00135032D22DC119C3C44BD
:1006700004EB0412109B03EB42035E19069A394601
:10068000284602F075F906AB03EB4000C388002B47
:10069000E9D00C4A22F816300B4A52F824300133C4
:1006A00042F82430202BDED1084A1368013313604E
:1006B000D9E70137032F01DC0025D5E7BDE8F84075
:1006C00004B0704708040020AC0A0020E00B0020B2
:1006D00084B02DE9F04106AC84E80F00DDF84880D5
:1006E000139F149E002520E00134032C1CDC3246AD
:1006F0002946204602F03CF906AB03EB4000C088D7
:10070000EB1903EB031204EB080101EB4202212970
:10071000EAD8182BE8D80028E6D0084B33F8123076
:10072000002BE1D0012005E00135032D01DC002480
:10073000DBE70020BDE8F04104B07047080400206A
:1007400010B40C490B680C4C0C4A04FB0322032325
:10075000A3FB0243A2EB030C03EB5C039B0FC3EB75
:10076000C373D31A0B6093FBF0F200FB12305DF8F9
:10077000044B7047340000200D6619005FF36E3C97
:1007800070B50546007802F0EBFC0646B0FA80F43E
:10079000640904F07DFA4EB90346686848B9AA684E
:1007A0009A1A0F2A03D9AB60012000E000206C6088
:1007B00070BD0020FBE7000010B51348FFF7E0FF15
:1007C00010B10124204610BD1048FFF7D9FF0446A0
:1007D00090B90F48FFF7D4FF0028F3D10D48FFF779
:1007E000CFFF58B90C48FFF7CBFF48B90B48FFF7CC
:1007F000C7FF38B10624E5E70324E3E70224E1E775
:100800000524DFE70424DDE728000020180000208D
:100810003800002000000020D00B00200C00002039
:1008200038B5174C204605F05DFF0A21204605F03B
:1008300047FB204605F0EAFB124D2860204605F0F4
:1008400051FF0A21204605F03BFB204605F0DEFB68
:100850006860204606F026F80B4C0C4A21462846D4
:1008600002F006F92368002B04DC13F1120F03DBFE
:10087000002000E0012038BD4FF0FF30FBE700BF53
:10088000300D0020C80B0020C00B0020980B00206A
:1008900038B51D4802F058FF4FF4FC6002F0ACFF81
:1008A0001A4D1B4C20881B4A2988023803F052F944
:1008B000194802F049FF4FF6FF7002F09DFF2988AA
:1008C0002088164A6431083803F044F9144B1B6839
:1008D000012B06D0124B1B685BB1642004F0DEF9DB
:1008E00038BD298820880F4A9631143803F032F930
:1008F000F0E7064B1988064B18880B4A96311438D6
:1009000003F028F9E9E700BF70BC000826000020CA
:100910002400002088BB000854BC000890BB0008DD
:10092000DC0B0020A4BB0008B8BB000810B584B0E5
:10093000184802F009FF184B1A68184901A80AF074
:1009400027FA4FF4784002F057FF154C154A2188DA
:100950000A2003F0FFF8144802F0F6FE4FF6FF708D
:1009600002F04AFF2188114A6431642003F0F2F852
:10097000218801AA6431BE2003F0ECF821880C4ADA
:10098000B431152003F0E6F8642004F087F904B0D0
:1009900010BD00BF70BC0008E00B0020CCBB0008FD
:1009A00026000020D0BB000854BC0008DCBB0008B7
:1009B000E4BB0008012801D010B170470020704747
:1009C0000120704772B6FEE700B595B038220021CD
:1009D00006A80AF00FF900200190029003900490FD
:1009E000059005F01FF8212306934FF4A0230793E9
:1009F00001230C9302230D9303220E920F93552291
:100A00001092119306221292139306A804F086F90D
:100A100080B90F23019303230293002303930493CC
:100A2000059304210DEB010004F030FC20B915B052
:100A30005DF804FBFFF7C6FFFFF7C4FF2DE9F041A7
:100A4000A4B004F009F9FFF7BFFF00F059F900F076
:100A50007DFB00F0CBFB00F07FFF00F0EBFF01F02F
:100A6000DFFC01F011FD01F043FD01F02DFE01F06E
:100A70009BF801F023F901F095FA01F009FB01F070
:100A800027FC00F0F7FB00F0FDFD00F029FE00F070
:100A9000AFFE00F09FFF01F0A3FB01F049FE00F064
:100AA00039FC02F06DF80AF025F800F0BFFD01F006
:100AB0005DF902F087FB02F0E1FA02F0A7FB86483D
:100AC00001F0C0FF02F0FAFD002002F009FD04462B
:100AD000012002F005FD034622468049804802F0CD
:100AE000FFFD804802F030FE4FF6FF7002F084FEFA
:100AF000002002F087FE7C49012003F069F8012004
:100B000003F074F8002454E0784D2868FFF752FF92
:100B10002860774A136801331360002002F05AFE00
:100B20005BE0744B0993744B0893EC460DF1700E27
:100B3000BEE80F00ACE80F009EE80F008CE80F0045
:100B400018AB0FCB02F07EFD0A2004F0A7F8FFF7E8
:100B500033FE0646FFF764FE0546062E53D0C82036
:100B600004F09CF8189F614B1B68012B54D0002D9A
:100B70005AD1229805442295239E06F101080A972E
:100B8000CDF824800895EC460DF1700EBEE80F00FC
:100B9000ACE80F009EE80F008CE80F0018AB0FCBFD
:100BA000FFF796FD012857D01897CDF88C8002F0FA
:100BB00075FD012CB5D0022C00F08180002CF8D1FD
:100BC0004E4B00221A60FFF715FDFFF739FDFFF7C6
:100BD0005FFEFFF7F1FD032896DD002002F0C0FA6A
:100BE0000028E6D102F0F6FD0720FFF7A9FD044634
:100BF0000420FFF7A5FD02461023214618A801F0A6
:100C0000D7FE01248DE702F049FD0024374B1C601C
:100C1000204602F0DFFDA2E79DF864304F2BA6D0FE
:100C2000032ED8BF0137A2E70A97239B0993229B83
:100C30002B4408936E460DF1700CBCE80F000FC6F4
:100C40009CE80F0086E80F0018AB0FCBFFF740FDC4
:100C500001288ED100258CE718976D461CAF0FCF69
:100C60000FC597E80F0085E80F0018AB0FCBFFF713
:100C7000F3FC02F013FD1F491F4802F0A8FCDEB18F
:100C80000720FFF75DFD05460420FFF759FD0646E6
:100C90001C20FFF755FD431C324629460CA801F0E5
:100CA00087FE18AE0CAD0FCD0FC60FCD0FC695E861
:100CB0000F0086E80F007CE702F0F0FC0224FFF74B
:100CC00035FE002002F04CFA054600287FF471AF93
:100CD00002F080FD2C4673E7980B0020C505000844
:100CE0000C0B00208CBC0008E1050008DC0B002088
:100CF00034000020AC0A002008040020E00B002093
:100D00002DE9F04F91B000240D940E940F940794A8
:100D1000089409940A940B940C94AB4BDA6C42F04F
:100D20001002DA64DA6C02F010020692069ADA6CAB
:100D300042F00402DA64DA6C02F004020592059AC9
:100D4000DA6C42F02002DA64DA6C02F020020492DB
:100D5000049ADA6C42F00102DA64DA6C02F0010201
:100D60000392039ADA6C42F00202DA64DA6C02F05F
:100D700002020292029ADA6C42F00802DA64DA6C39
:100D800002F008020192019ADA6C42F04002DA6441
:100D9000DB6C03F040030093009B8C4E4FF008097E
:100DA000C6F828901023B3622023B362884F012530
:100DB000BD624FF00208C7F828800423BB62C7F861
:100DC0002890B3624FF40063B362DFF814A280236B
:100DD000CAF828307F4BC3F82890A3F5006320227F
:100DE0009A6240229A62DFF8FCB1CBF82850CBF827
:100DF00018804FF4005307930B9507A9384608F065
:100E0000B5FE4FF40043079308940B9507A93846A5
:100E100008F0ACFECDF81C90089509940A940B9448
:100E200007A9304608F0A2FE1023079308950994FD
:100E30000A940B9407A9304608F098FE20230793E4
:100E4000089509940A940B9407A9304608F08EFE81
:100E50000795089509940A940B9407A9384608F059
:100E600085FECDF81C80089509940A940B9407A977
:100E7000384608F07BFE04230793089509940A94EA
:100E80000B9407A9384608F071FECDF81C90089520
:100E900009940A940B9407A9384608F067FE0423C6
:100EA00007930895032309930A940B9407A93046E6
:100EB00008F05CFE4FF400630793089509940A94C8
:100EC0000B9407A9304608F051FE079508940B953E
:100ED00007A9504608F04AFECDF81C8008940B95EF
:100EE00007A9504608F042FE4023079308940B954B
:100EF00007A9504608F03AFE802307930895099405
:100F00000A940B9407A9504608F030FE4FF4807302
:100F1000079308940B9507A9504608F027FECDF8D3
:100F20001C90089509940A940B9407A9294808F085
:100F30001DFE20230793089509940A940B9407A992
:100F4000254808F013FE40230793089509940A9456
:100F50000B9407A9204808F009FE07950895099405
:100F60000A940B9407A9584608F000FECDF81C809F
:100F70000895CDF824800A940B9507A9584608F0E7
:100F8000F5FD164B5A6922F470624FF4706393FAC0
:100F9000A3F3002B00F0BF80B3FA83F303F01F0329
:100FA000022101FA03F313430C4A5361D26822F47D
:100FB00070624FF4706393FAA3F3002B00F0AD80DE
:100FC000B3FA83F310E000BF0010024000140048A1
:100FD00000080048000C00480004004800000140E0
:100FE000001800480010004803F01F03032101FA15
:100FF00003F31343504AD3604FF480440D94012708
:101000008DF83C7000268DF83D6002258DF83E502D
:101010000DA808F0DBFC40230D938DF83C708DF893
:101020003D608DF83E500DA808F0D0FC434BDB68C6
:1010300094FAA4F4002C72D0B4FA84F4640003226D
:1010400002FA04F423EA04044FF4804393FAA3F36E
:10105000002B66D0B3FA83F35B00012202FA03F39C
:101060002343364AD360364BDA68402393FAA3F31E
:10107000002B58D0B3FA83F35B00032101FA03F38A
:1010800022EA0302402393FAA3F3002B4DD0B3FAD4
:1010900083F35B00012101FA03F31343284AD36071
:1010A000264B1A684FF4804393FAA3F3002B3ED0EB
:1010B000B3FA83F35B00032101FA03F322EA03038B
:1010C0004FF4804292FAA2F21C4A13601C4B1A6839
:1010D000402393FAA3F363B3B3FA83F35B000321D2
:1010E00001FA03F322EA0303402292FAA2F2144A1D
:1010F00013601449CB68144B002283F817234FF474
:1011000000001860C96883F828234FF480725A6081
:1011100011B0BDE8F08F202340E7202364E72024AE
:101120008CE7202398E72023A6E72023B1E720239C
:10113000C0E72023D2E700BF0000014000080048BC
:10114000000C004800ED00E000E100E010B58CB0BC
:10115000002409940A940B942022214601A809F046
:1011600049FD20484FF0A04303604FF440334360F3
:101170008460C4600461446104238361047744771C
:101180000123036280F82440C462046380F838407D
:10119000C46380F8404004F03FFDC8B900230993C0
:1011A00009A9104805F0A0FBA8B90F4B019306232D
:1011B0000293002303937F22049204220592069354
:1011C0000DEB0201074804F025FF38B90CB010BD43
:1011D000FFF7F8FBE2E7FFF7F5FBE6E7FFF7F2FBC7
:1011E000F4E700BFEC0B00200400600800B589B0F4
:1011F00020220021684609F0FDFC1B481B4B0360C0
:101200004FF44033436000238360C3600361436154
:1012100004228261037743770122026280F824303E
:10122000C362036380F83830C36380F8403004F051
:10123000F3FC90B90E4B0093062301930023029315
:101240007F2203920422049205936946064804F023
:10125000E1FE28B909B05DF804FBFFF7B3FBE9E74D
:10126000FFF7B0FBF6E700BF580C0020000100506C
:101270002000F01410B58CB0002409940A940B944B
:101280002022214601A809F0B5FC1F481F4B03602E
:101290004FF4403343608460C460046144610423BC
:1012A0008361047744770123036280F82440C46299
:1012B000046380F83840C46380F8404004F0ACFC1C
:1012C000C8B90023099309A90F4805F00DFBA8B977
:1012D0000F4B019306230293002303937F22049272
:1012E0000422059206930DEB0201074804F092FEDA
:1012F00038B90CB010BDFFF765FBE2E7FFF762FB02
:10130000E6E7FFF75FFBF4E7C40C002000040050A1
:101310000001802100B589B020220021684609F033
:1013200069FC2348234B03604FF4403343600023A0
:101330008360C360036101224261042181610377FC
:1013400043770221016280F824208262C362036332
:1013500080F838304FF48052C26380F8403004F097
:101360005BFCE0B9144B0093062301930523029321
:101370007F230393042304930023059369460C48B9
:1013800004F048FE70B90D4B00930C23019369469D
:10139000074804F03FFE40B909B05DF804FBFFF7D1
:1013A00011FBDFE7FFF70EFBEDE7FFF70BFBF3E7C2
:1013B000300D0020000500501000C0102000F01477
:1013C00030B5A7B0044600212191229123912491A8
:1013D000259154220CA809F00DFC2368B3F1A04F0D
:1013E0000CD0884A93423DD0874A934200F0A280B5
:1013F000864A934200F0D28027B030BD4FF40043BC
:101400000C934FF000531D930CA804F065F8D8B965
:101410007F4A136801331360012B18D07D4BDA6CBF
:1014200042F00102DA64DB6C03F001030293029BD9
:101430000F232193032322930023239321A94FF009
:10144000904004F005FAD7E7FFF7BCFAE0E7714BEC
:10145000DA6C42F40052DA64DB6C03F4005301935B
:10146000019BDBE74FF400430C934FF000531D93B7
:101470000CA804F031F800284ED1654A13680133F6
:101480001360012B4BD0634BDA6C42F02002DA641C
:10149000DA6C02F020020492049ADA6C42F0010243
:1014A000DA64DA6C02F001020592059ADA6C42F015
:1014B0000402DA64DA6C02F004020692069ADA6C2C
:1014C00042F00202DA64DB6C03F002030793079B2D
:1014D00002232193032522950024239421A94E4819
:1014E00004F0B6F9202321932295239421A94FF0EB
:1014F000904004F0ADF9302321932295239421A943
:10150000464804F0A5F9042321932295239421A9A8
:10151000434804F09DF96FE7FFF754FAADE73D4B00
:10152000DA6C42F40052DA64DB6C03F40053039388
:10153000039BA8E74FF480330C934FF000431E93B6
:101540000CA803F0C9FFD8B9364A136801331360F9
:10155000012B18D02F4BDA6C42F00802DA64DB6CF6
:1015600003F008030993099B4FF46053219303236D
:1015700022930023239321A92B4804F069F93BE728
:10158000FFF720FAE0E7234BDA6C42F48042DA649A
:10159000DB6C03F480430893089BDBE74FF4803354
:1015A0000C934FF000431E930CA803F095FFD8B99D
:1015B0001C4A136801331360012B18D0154BDA6CE9
:1015C00042F00202DA64DB6C03F002030B930B9B24
:1015D0004FF440432193032322930023239321A913
:1015E0000F4804F035F907E7FFF7ECF9E0E7094B9E
:1015F000DA6C42F48042DA64DB6C03F480430A93D1
:101600000A9BDBE700010050000400500005005079
:10161000E40B0020001002400014004800080048BD
:1016200000040048E80B0020000C004808B50848FA
:10163000084B0360002303714371436183610123FD
:10164000036205F03BFA00B908BDFFF7BBF9FBE701
:101650009C0D0020003002400268094B9A4200D0E5
:10166000704782B0A3F500539A6C42F480529A649A
:101670009B6C03F480530193019B02B0704700BF41
:101680000030024000B58DB030220021684609F0DC
:10169000B1FA1148114B036005F087FAA8B902238B
:1016A000009300228DF804208DF805200292039209
:1016B000049205920123069307926946064805F0B5
:1016C000BFFA28B90DB05DF804FBFFF77BF9E6E738
:1016D000FFF778F9F6E700BFC00D002000080050C2
:1016E00000B58DB030220021684609F083FA114818
:1016F000114B036005F059FAA8B9022300930022A8
:101700008DF804208DF80520029203920492059230
:101710000123069307926946064805F091FA28B915
:101720000DB05DF804FBFFF74DF9E6E7FFF74AF966
:10173000F6E700BFD40D0020000C005000B58BB0C0
:101740000023059306930793089309930368254A9A
:10175000934205D0244A934227D00BB05DF804FB96
:10176000224BDA6C42F48032DA64DA6C02F48032B2
:101770000192019ADA6C42F00102DA64DB6C03F048
:1017800001030293029B102305930323069305A9EB
:101790004FF0904004F05CF800220F21362004F056
:1017A000E1F9362004F016FAD7E7104BDA6C42F470
:1017B0000032DA64DA6C02F400320392039ADA6CD3
:1017C00042F00102DA64DB6C03F001030493049B32
:1017D000402305930323069305A94FF0904004F09E
:1017E00037F8BAE700080050000C00500010024023
:1017F00008B50F480F4B0360002343608360C3604C
:101800000374437483740122426182610221C161C5
:10181000016242628262C262026343638363C363A2
:1018200005F054FB00B908BDFFF7CCF8FBE700BF9B
:10183000E80D00200068004010B59CB0044600216F
:101840001791189119911A911B91542202A809F02D
:10185000D1F92268194B9A4201D01CB010BD4FF447
:10186000805302934FF00073109302A803F034FEEC
:1018700008BB134B9A6D42F000729A659A6D02F0A4
:1018800000720092009ADA6C42F00202DA64DB6CB9
:1018900003F002030193019B4FF44053179302237B
:1018A0001893002319931A9309231B9317A905482A
:1018B00003F0CEFFD1E7FFF785F8DAE700680040D4
:1018C0000010024000040048F0B587B000230193E7
:1018D00002930393049305931A4B1B680BB107B053
:1018E000F0BD184B01221A60174B1A6D42F001022D
:1018F0001A651B6D03F001030093009B4FF6807384
:10190000019302260296032504950C24059401A94F
:101910000E4803F09DFF4CF2B3730193029600272B
:1019200003970495059401A9094803F091FF20232A
:101930000193029603970495059401A9054803F0C5
:1019400087FFCCE74C0E002000100240001000483A
:10195000000C00480018004810B588B02022002173
:10196000684609F047F918484FF02043036003F533
:101970008273436000228260C26002611021416173
:101980008261C26102624FF4805343628262C2622A
:10199000026342638263C2634264026480F8482047
:1019A000012300930F240194029303930493059160
:1019B00011230693694605F073FB08B908B010BD02
:1019C000FFF700F8FAE700BF500E002008B5FFF758
:1019D0007BFF08BD08B51548154B0360A3F175637F
:1019E000A3F57A23A3F60543436000238360012215
:1019F000C260036143618361C361036205F07CFBE4
:101A000050B90021094805F0D5FB40B9002107482D
:101A100005F0FEFB30B908BDFEF7D4FFF1E7FEF795
:101A2000D1FFF3E7FEF7CEFFF5E700BFA80E0020D9
:101A30000054004008B51448144B0360A3F17563CB
:101A4000A3F57B23053B4360002383600122C26032
:101A5000036143618361C361036205F04DFB50B9CB
:101A60000021094805F0A6FB40B90021064805F011
:101A7000CFFB30B908BDFEF7A5FFF1E7FEF7A2FFE7
:101A8000F3E7FEF79FFFF5E7F40E00200058004053
:101A9000F0B5A1B0044600211B911C911D911E912F
:101AA0001F91542206A809F0A5F823683A4A9342E8
:101AB00004D03A4A934241D021B0F0BD402306936E
:101AC00006A803F009FD002835D1354CE36C43F03E
:101AD0000103E364E36C03F001030193019BE36CF6
:101AE00043F00203E364E36C03F002030293029BFE
:101AF0004FF400431B9312271C9700251D951E953C
:101B000004261F961BA94FF0904003F0A1FE8023EE
:101B10001B931C971D951E951F961BA9214803F02A
:101B200097FEA36D43F40013A365A36D03F40013A4
:101B30000393039BC0E7FEF745FFC6E780230693A8
:101B400006A803F0C9FC18BB154CE36C43F0010375
:101B5000E364E36C03F001030493049B4FF44073CC
:101B60001B9312231C9301231D9300231E93042314
:101B70001F931BA94FF0904003F06AFEA36D43F43E
:101B80008003A365A36D03F480030593059B93E78E
:101B9000FEF718FFD8E700BF00540040005800408F
:101BA000001002400004004808B50A480A4B0360D0
:101BB000FF234360012282600023C360026143610E
:101BC0008361C361036205F07BFB00B908BDFEF7CA
:101BD000F9FEFBE7400F0020001000A070B59EB09A
:101BE0000446002119911A911B911C911D915422B8
:101BF00004A808F0FFFF22682C4B9A4201D01EB0C7
:101C000070BD4FF48023049304A803F065FC002802
:101C100048D1274B1A6D42F480721A651A6D02F48E
:101C200080720092009ADA6C42F00102DA64DA6C97
:101C300002F001020192019ADA6C42F00202DA64C7
:101C4000DA6C02F002020292029ADA6C42F020028E
:101C5000DA64DB6C03F020030393039B8023199366
:101C600002261A9600241B941C940A251D9519A976
:101C70004FF0904003F0ECFD40F6034319931A96A1
:101C80001B941C941D9519A90A4803F0E1FD4023FB
:101C900019931A961B941C941D9519A9064803F0D4
:101CA000D7FDACE7FEF78EFEB3E700BF001000A043
:101CB00000100240000400480014004808B5104815
:101CC000104B03604FF482734360002383604FF432
:101CD000E062C260036143614FF4007282612822B6
:101CE000C2610362436283620722C2620363436389
:101CF00005F03EFB00B908BDFEF764FEFBE700BF40
:101D00008C0F00200030014000B589B00023039300
:101D100004930593069307930268124B9A4202D0EC
:101D200009B05DF804FB03F560431A6E42F480527B
:101D30001A661A6E02F480520192019ADA6C42F02D
:101D40004002DA64DB6C03F040030293029B1C2325
:101D50000393022304930523079303A9024803F086
:101D600077FDDDE7003001400018004810B586B06F
:101D700000230193029303930493059303F180439B
:101D800003F504339A6D42F010029A659B6D03F0DF
:101D900010030093009B1E4BDA68C2F30222C2F1CB
:101DA0000703042B28BF04231946131D062B2CD927
:101DB000033A4FF0FF338B40DB4303F00F039340B4
:101DC0001B01DBB2134A82F836334FF480035360B1
:101DD000AA23ADF80430002302934CF24F3303934F
:101DE0000D4C01A9204607F09FFB236843F08003B8
:101DF0002360636823F0007323F070036360A368BB
:101E000023F08003A36006B010BD0022D1E700BF1D
:101E100000ED00E000E100E00010004084B0036845
:101E20001C4A934213D01C4A93421CD01B4A934233
:101E300024D01B4A934214D11A4B1A6E42F48012DA
:101E40001A661B6E03F480130393039B09E0154B82
:101E50009A6D42F008029A659B6D03F008030093A7
:101E6000009B04B070470F4B1A6E42F400521A6682
:101E70001B6E03F400530193019BF2E7094B1A6EAA
:101E800042F480321A661B6E03F480330293029B85
:101E9000E7E700BF000C0040003401400040014073
:101EA000005001400010024000B58BB000230593A4
:101EB00006930793089309930368334A93420BD020
:101EC000324A93421ED0324A934231D0314A934231
:101ED00044D00BB05DF804FB2F4BDA6C42F02002CB
:101EE000DA64DB6C03F020030193019B4FF4607311
:101EF0000593022306930623099305A9274803F0B7
:101F0000A7FCE6E7244BDA6C42F00402DA64DB6CEF
:101F100003F004030293029B4FF4707305930223B2
:101F200006930423099305A91D4803F091FCD0E70B
:101F3000194BDA6C42F02002DA64DB6C03F0200308
:101F40000393039B4FF480630593022306930323BB
:101F5000099305A9114803F07BFCBAE70E4BDA6C34
:101F600042F02002DA64DB6C03F020030493049B4C
:101F70004FF47043059302230693099305A907487C
:101F800003F066FCA5E700BF000C004000340140F0
:101F90000040014000500140001002400014004881
:101FA0000008004800B58FB000230A930B930C93F0
:101FB0000D9307930893099300930193029303935E
:101FC0000493059306933048304A02600A22426027
:101FD000836042F21072C26003618023836105F066
:101FE00043FC00283AD14FF480530A930AA92648AB
:101FF00005F092FD002834D1234805F065FC002847
:1020000032D100230793099307A91F4805F02EFE3C
:1020100068BB60230093C8230193002302930493B9
:1020200004226946184805F0CDFC18BB4FF4C8736C
:10203000019308226946144805F0C4FCE8B94FF43E
:10204000167301930C2269460F4805F0BBFCB8B922
:102050000D48FFF729FF0FB05DF804FBFEF7B2FC57
:10206000C1E7FEF7AFFCC7E7FEF7ACFCC9E7FEF738
:10207000A9FCCEE7FEF7A6FCD8E7FEF7A3FCDEE757
:10208000FEF7A0FCE4E700BF88100020000C004031
:1020900010B59CB00024189419941A941B941594AC
:1020A000169417940E940F94109411941294139400
:1020B00014943422214601A808F09CFD4648474B61
:1020C0000360446084604FF6FF73C3600461446141
:1020D000846105F0C9FB002862D14FF48053189346
:1020E00018A93D4805F018FD00285CD13A4805F0D4
:1020F000EBFB00285AD1002315931693179315A9CB
:10210000354805F0B3FD002853D160230E934FF4FA
:102110007A730F93002210921192129213921492DA
:102120000EA92D4805F04EFC002845D14FF4FA6366
:102130000F9304220EA9284805F044FC00283ED144
:102140004FF47A630F9308220EA9234805F03AFC56
:10215000002837D14FF4FA530F930C220EA91E48D2
:1021600005F030FC002830D1002301930293039343
:10217000049305934FF40052069207930893099332
:102180004FF000720A920B930C930D9301A9124821
:1021900005F0C2FDE0B91048FFF786FE1CB010BD87
:1021A000FEF710FC99E7FEF70DFC9FE7FEF70AFC2F
:1021B000A1E7FEF707FCA8E7FEF704FCB6E7FEF789
:1021C00001FCBDE7FEF7FEFBC4E7FEF7FBFBCBE738
:1021D000FEF7F8FBDFE700BFD41000200034014019
:1021E00010B59CB00024189419941A941B9415945B
:1021F000169417940E940F941094119412941394AF
:1022000014943422214601A808F0F4FC2E482F4BE8
:102210000360446084604FF40043C3600461446120
:10222000846105F021FB00283CD14FF480531893C2
:1022300018A9254805F070FC002836D1224805F081
:1022400043FB002834D100231593179315A91E488A
:1022500005F00CFD00282ED160230E934FF47A5325
:102260000F9300231093119312931393149304224A
:102270000EA9154805F0A6FB00BB002301930293AD
:102280000393049305934FF40052069207930D9322
:1022900001A90D4805F040FD98B90B48FFF704FE71
:1022A0001CB010BDFEF78EFBBFE7FEF78BFBC5E74A
:1022B000FEF788FBC7E7FEF785FBCDE7FEF782FB5D
:1022C000DBE7FEF77FFBE8E7F00F0020004001406E
:1022D00010B59CB00024189419941A941B9415946A
:1022E000169417940E940F941094119412941394BE
:1022F00014943422214601A808F07CFC4648474B40
:102300000360446084604FF47A53C36004614461A5
:10231000846105F0A9FA002862D14FF48053189324
:1023200018A93D4805F0F8FB00285CD13A4805F0B3
:10233000CBFA00285AD1002315931693179315A9A9
:10234000354805F093FC002853D160230E934FF4D9
:10235000FA530F9300221092119212921392149238
:102360000EA92D4805F02EFB002845D142F210732E
:102370000F9304220EA9284805F024FB00283ED123
:1023800042F6E0630F9308220EA9234805F01AFBDA
:10239000002837D143F698230F930C220EA91E482C
:1023A00005F010FB002830D1002301930293039322
:1023B000049305934FF400520692079308930993F0
:1023C0004FF000720A920B930C930D9301A91248DF
:1023D00005F0A2FCE0B91048FFF766FD1CB010BD87
:1023E000FEF7F0FA99E7FEF7EDFA9FE7FEF7EAFA53
:1023F000A1E7FEF7E7FAA8E7FEF7E4FAB6E7FEF78B
:10240000E1FABDE7FEF7DEFAC4E7FEF7DBFACBE759
:10241000FEF7D8FADFE700BF3C1000200050014073
:1024200008B51748174B03604FF4E13343600023AE
:102430008360C36003610C2242618361C3610362F4
:102440004362836205F0A3FF70B900210C4806F0D7
:1024500016F860B900210A4806F036F850B9084865
:1024600005F0EEFF48B908BDFEF7ACFAEDE7FEF760
:10247000A9FAEFE7FEF7A6FAF1E7FEF7A3FAF2E70B
:1024800040120020004C004008B51748174B03606D
:102490004FF4E133436000238360C36003610C2287
:1024A00042618361C36103624362836205F06FFF2F
:1024B00070B900210C4805F0E2FF60B900210A481C
:1024C00006F002F850B9084805F0BAFF48B908BD4F
:1024D000FEF778FAEDE7FEF775FAEFE7FEF772FA26
:1024E000F1E7FEF76FFAF2E7D0120020005000404B
:1024F00070B5A6B0202200211EA808F07BFB0021A9
:10250000189119911A911B911C911D91542203A8A5
:1025100008F070FB0123039303A802F0DDFF0028FD
:1025200040F0C480634B1A6E42F480421A661A6E01
:1025300002F480420292029ADA6C42F00102DA64FA
:10254000DA6C02F001020192019ADA6C42F0400268
:10255000DA64DB6C03F040030093009B4FF480636C
:1025600018930226199600241A941B941C9407258C
:102570001D9518A94FF0904007F0F8FA4FF400733A
:10258000189319961A941B941C941D9518A94A48DF
:1025900007F0ECFA494BD3F8002822F0FF0242F092
:1025A0001802C3F800289A6822F4804222F0100230
:1025B0009A609A6822F440529A609A6822F0200247
:1025C0009A609A6822F040029A609A6842F080020B
:1025D0009A609A6822F440729A609A6822F4406283
:1025E0009A60D3F8042822F0FF0242F01902C3F8DF
:1025F0000428DA6922F4804222F0100242F010022C
:10260000DA61DA6922F44052DA61DA6922F02002F2
:10261000DA61DA6922F04002DA61DA6942F08002B6
:10262000DA61DA6922F44072DA61DA6922F440622E
:10263000DA611E944FF4E1331F9320942194229485
:102640000C232393249425941EA91D4806F0DCFF37
:102650001C4B53E8002F22F0604243E80021002980
:10266000F6D153E8002F22F0606243E800210029F0
:10267000F7D1134B1A6822F000521A605A6822F4FC
:1026800090425A609A6822F02A029A601A6842F0D0
:1026900001021A600A4BDB6913F4001FFAD0084BE1
:1026A000DB6913F4800FF5D026B070BDFEF78AF910
:1026B00038E700BF00100240001800480000024048
:1026C000003801400838014008B51748174B03602F
:1026D0004FF4E133436000238360C36003610C2245
:1026E00042618361C36103624362836205F04FFE0E
:1026F00070B900210C4805F0C2FE60B900210A48FB
:1027000005F0E2FE50B9084805F09AFE48B908BD48
:10271000FEF758F9EDE7FEF755F9EFE7FEF752F946
:10272000F1E7FEF74FF9F2E72011002000440040E6
:1027300008B51748174B03604FF4E133436000239B
:102740008360C36003610C2242618361C3610362E1
:102750004362836205F01BFE70B900210C4805F04E
:102760008EFE60B900210A4805F0AEFE50B9084857
:1027700005F066FE48B908BDFEF724F9EDE7FEF75F
:1027800021F9EFE7FEF71EF9F1E7FEF71BF9F2E793
:10279000B01100200048004070B5A4B004460021EC
:1027A0001F91209121912291239154220AA808F08F
:1027B00021FA2368664A93420BD0664A934233D08B
:1027C000654A93426FD0654A934200F0968024B0E8
:1027D00070BD08230A930AA802F07EFE08BB604B76
:1027E0009A6D42F400229A659A6D02F400220192D9
:1027F000019ADA6C42F00402DA64DB6C03F0040341
:102800000293029B4FF440631F9302232093002303
:1028100021932293052323931FA9524803F018F80C
:10282000D5E7FEF7CFF8DAE710230A930AA802F0FB
:1028300053FE002834D14A4B9A6D42F480129A65B7
:102840009A6D02F480120392039ADA6C42F0040249
:10285000DA64DA6C02F004020492049ADA6C42F050
:102860000802DA64DB6C03F008030593059B4FF460
:1028700080531F930226209600242194229405253C
:1028800023951FA9374802F0E3FF04231F932096E6
:102890002194229423951FA9334802F0D9FF96E78B
:1028A000FEF790F8C7E702230A930AA802F014FE85
:1028B00000BB2B4B9A6D42F400329A659A6D02F47C
:1028C00000320692069ADA6C42F00202DA64DB6C9D
:1028D00003F002030793079B18231F9302232093FF
:1028E000002321932293072323931FA91F4802F05B
:1028F000AFFF6CE7FEF766F8DBE704230A930AA84C
:1029000002F0EAFD08BB164B9A6D42F480229A65EC
:102910009A6D02F480220892089ADA6C42F0020260
:10292000DA64DB6C03F002030993099B4FF44073F4
:102930001F930223209300232193229307232393A1
:102940001FA90A4802F084FF41E7FEF73BF8DAE7E7
:10295000004C00400050004000440040004800404F
:102960000010024000080048000C00480004004825
:10297000534202F0030203F0030358BF5A42032AF2
:1029800014D8DFE802F00205090E00EB8100704761
:102990000C31A1EB800070478900C1F10F01081ACA
:1029A0007047C1F1030101EB8000704700207047C0
:1029B00030B50025062909D8DFE801F0040B101511
:1029C000191E23004924047140F2FF754FF0000CDA
:1029D00023E05424047148F21005F7E74F240471F2
:1029E0004FF6E075F2E74A2404711F25EEE74C2408
:1029F00004714FF62055E9E7532404714FF4FC6548
:102A0000E4E75A2404714FF47845DFE700EB4C0EFD
:102A10000024AEF806400CF1010CBCF10F0F0ADCEB
:102A20000CEB011E064C54F82E40012CEED100EBAD
:102A30004C04E580EFE783620023C362026030BD8F
:102A4000440000204FF44372026040F6025383605A
:102A50004260C3605A2303614361044B8361C361D5
:102A600040F6070303624362704700BF9190103D38
:102A700010B492ED067A0368146A1B1B07EE903AB5
:102A8000F8EEE77A67EE877AFDEEE77AC1ED007A35
:102A900092ED077A4368526A9B1A07EE903AF8EE75
:102AA000E77A67EE677AFDEEE77AC1ED017A5DF8C5
:102AB000044B7047FEE7FEE7FEE7FEE7FEE77047E0
:102AC0007047704708B502F0D7F808BD70477047E7
:102AD00008B5024801F056FE08BD00BF30280020AE
:102AE000044B5B6913F0400F00D17047014B40224B
:102AF0005A61FAE700040140054B5B6913F4804F0B
:102B000000D17047024B4FF480425A61F9E700BF91
:102B10000004014008B50A4BDB6813F0010F0AD02E
:102B2000074B1B6913F0010F05D0054B6FF0010235
:102B30001A6100F01FFB034804F04AF808BD00BF0B
:102B400000100040C00D002000B583B00B4B1A6E82
:102B500042F001021A661A6E02F001020092009A17
:102B60009A6D42F080529A659B6D03F080530193F9
:102B7000019B02F0DDFF03B05DF804FB0010024092
:102B800008B500220F49104807F0BAF870B90F498C
:102B90000D4807F0CCF860B90D490B4807F037FF36
:102BA00050B9094807F0DAF848B908BDFDF70AFF3F
:102BB000EDE7FDF707FFEFE7FDF704FFF1E7FDF7AE
:102BC00001FFF2E7040200206013002078020020D9
:102BD0005802002012230B80004870472402002076
:102BE00004230B80004870473802002000239342E2
:102BF0001ED200B510E00CF1370C01F813C0000133
:102C00004FEA430C0CF1010C4FF0000E01F80CE000
:102C10000133DBB2934209D24FEA107CB0F1204F6E
:102C2000E9D20CF1300C01F813C0E8E75DF804FBC1
:102C30007047000038B50B4BD3F89005D3F8944596
:102C4000D3F89835C01800D138BD074D0822A91C0B
:102C5000FFF7CCFF042205F112012046FFF7C6FF63
:102C6000F2E700BF0070FF1F3C02002008B51A23E6
:102C70000B80FFF7DFFF014808BD00BF3C020020CA
:102C800008B50A4628B90549054807F0E4FC034899
:102C900008BD0249024807F0DEFCF8E730160020C4
:102CA000FCBB000810B50A46034C2146034807F058
:102CB000D2FC204610BD00BF3016002014BC000816
:102CC00008B50A4628B90549054807F0C4FC034879
:102CD00008BD0249024807F0BEFCF8E730160020A4
:102CE00028BC000808B50A4628B90549054807F078
:102CF000B2FC034808BD0249024807F0ACFCF8E703
:102D00003016002034BC00080020704700207047B7
:102D10000020704710B50146044C204607F089FE9C
:102D2000204607F08FFE002010BD00BF601300207A
:102D300010B5064C00220649204607F06FFE0549F3
:102D4000204607F076FE002010BD00BF6013002073
:102D50003020002030180020032805D8DFE800F0DC
:102D600005040205012070470320704708B5FDF7F0
:102D70002BFE08BD10B596B004465422002101A8D0
:102D800007F038FF2268114B9A4201D016B010BDEF
:102D90004FF40053019301A802F09EFB90B90C4B35
:102DA0009A6D42F400029A659B6D03F40003009350
:102DB000009B00221146142002F0D4FE142002F0E1
:102DC00009FFE3E7FDF7FEFDE9E700BF005C004017
:102DD0000010024008B500F52C71D0F8F00206F0A2
:102DE000D2FF08BD08B501EB810300EBC303D3F8A4
:102DF0007C21D0F8F00206F0F2FF08BD08B501EB27
:102E0000810300EBC303DA6BD0F8F00207F023F87C
:102E100008BD08B5D0F8F00207F0C3F808BD10B53A
:102E200004468368022B09D10121D4F8F00207F08F
:102E30009EF8D4F8F00207F06DF810BDFDF7C2FD62
:102E4000F2E7000010B50446D0F8F00207F092F85F
:102E5000A36923B1024A136943F00603136110BD4D
:102E600000ED00E010B50446836923B9D4F8F00200
:102E700007F08AF810BD044A136923F006031361B2
:102E8000FFF774FFF2E700BF00ED00E010B5044665
:102E90001E48C0F8F042C4F8C4021D4B036008236A
:102EA0004360022383600361002343618361C36144
:102EB000036200F03DFF30BB182300221146D4F816
:102EC000C40201F06FFE582300228021D4F8C4020E
:102ED00001F068FEC02300228121D4F8C40201F071
:102EE00061FE4FF4887300220121D4F8C40201F07E
:102EF00059FE4FF4807300228221D4F8C40201F0FD
:102F000051FE002010BDFDF75DFDD5E73028002003
:102F1000005C004008B5D0F8C40200F07BFFFFF76A
:102F20001BFF08BD08B594461A466346D0F8C40294
:102F300001F001FDFFF710FF08BD08B5D0F8C4028D
:102F400001F03BFDFFF708FF08BD08B5D0F8C4024B
:102F500001F0B8FDFFF700FF08BD08B5D0F8C402C6
:102F600001F0E5FDFFF7F8FE08BDD0F8C43211F01E
:102F7000800F08D101F07F0101EB810103EBC1015A
:102F800091F86A01704701F07F01013101EB810185
:102F900003EBC1018878704708B5D0F8C40201F08E
:102FA000DDFBFFF7D9FE08BD08B5D0F8C40201F07B
:102FB00061FDFFF7D1FE08BD08B5D0F8C40201F0ED
:102FC0002EFDFFF7C9FE08BD08B5D0F8C40201F018
:102FD00048FD08BD10B5044611B101290FD010BD40
:102FE000836923B9D4F8F00206F0CEFFF7E7FFF7C4
:102FF000BDFE094A136923F006031361F2E7D0F816
:10300000F00206F0B7FFA369002BE8D0024A13696B
:1030100043F006031361E2E700ED00E0004870476B
:10302000242B0020704703460020D8609860186168
:103030005A685A61704708B501604260FFF7F3FFB4
:1030400008BD03694268934215D263B9C3608360C7
:1030500002688368D1540369013303614369013B0A
:103060004361002070478368013383609A42EFD840
:1030700000238360ECE701207047000008B51D4B7A
:103080004FF400425A601C4919604FF480421A61A3
:10309000D9600122DA61194A9A61022098625A6263
:1030A00040201864DA634FF4807058631A634FF459
:1030B0000052DA649964002308E003EB43029100B4
:1030C0000C4A0A440121117251720B44062BF4DDA3
:1030D00020220B490B48FFF7AEFF0B4B054A536507
:1030E000DA6842F00102DA601A6842F001021A60FE
:1030F00008BD00BF7C2D00200008004800180048D3
:103100005C2D0020442D00200010004010B500244C
:1031100002E001230FE00134062C1CDC0E4804EB16
:1031200044039A008318197A597282585B681269AD
:103130009343EED00023DBB204EB44029000064A36
:10314000024413720129E6D1002BE4D1E1B2034815
:10315000FFF777FFDFE710BD7C2D0020442D002016
:1031600000EB4000024B03EB8000007A704700BF89
:103170007C2D002008B5FFF7C9FF08BD0023012200
:10318000072B1BD810B40CE00D4951F8334001EB6C
:10319000C3014968A1625200D2B20133DBB2072BEE
:1031A00009D80242F0D0064951F8334001EBC3017F
:1031B0004968A161EFE75DF8044B7047704700BFB5
:1031C000D42D002010B50E4B042058600D4A1A6013
:1031D0000821D9609A6010245C611A612024DC61A6
:1031E0009A6101225A62084A1A620224DC629A62D7
:1031F00058631A63D9639A630020FFF7BFFF10BDBD
:10320000D42D0020001400480008004810B5104CD0
:10321000104B2360104B1868002302221946806867
:1032200007F0F0FC4FF4FA720C490D48FFF703FF6A
:103230004FF4FA720B490C48FFF7FDFE226852E882
:10324000003F43F0200342E800310029F7D110BDD0
:10325000142E00200048004088030020302E00205B
:10326000182E00203C30002024300020034B1B6827
:10327000DA6912F0400FF9D098627047142E0020DE
:1032800070B506460D46002403E0305DFFF7EEFF03
:103290000134AC42F9D370BD10B50846144611464E
:1032A000FFF7EEFF204610BD02884FF0C0431A80A2
:1032B000BFF34F8F70470000002307E030F813C0C2
:1032C000044AA2F800C0BFF34F8F01338B42F5D3FD
:1032D000704700BF00000160002304E0034A108033
:1032E000BFF34F8F01338B42F8D37047000001606A
:1032F00010B582B004463623ADF80630104B33F8D3
:103300002030ADF804300DF10600FFF7CDFF0121AC
:1033100001A8FFF7D1FF44B1032C06D0094BF022DE
:103320001A604FF4A0725A6005E0064B4FF4A07289
:103330001A60F0225A60034B9C6002B010BD00BFBF
:1033400044BC00083032002030B585B00C461D4624
:103350002A23ADF80E30C0F30F23ADF80430C3B20A
:10336000ADF806308318013BC3F30F23ADF80830E6
:1033700012FA80F080B20138C0B2ADF80A000DF147
:103380000E00FFF791FF04210DEB0100FFF794FF02
:103390002B23ADF80E30C4F30F23ADF80430E3B2A5
:1033A000ADF806306219013AC2F30F22ADF80820D9
:1033B00015FA84F4A4B2013CE4B2ADF80A400DF170
:1033C0000E00FFF771FF04210DEB0100FFF774FF02
:1033D0002C23ADF80E300DF10E00FFF765FF05B0A0
:1033E00030BD000030B585B004460846FFF780FFC9
:1033F000314A5368126800210846FFF7A5FF1123E0
:10340000ADF80E300DF10E00FFF74EFFC82001F0B1
:1034100045FC1323ADF80E300DF10E00FFF744FF0D
:10342000642001F03BFC3A23ADF80E30ADF80440C7
:103430000DF10E00FFF738FF012101A8FFF73CFF57
:10344000642001F02BFCF623ADF80E304923ADF8D3
:1034500004300024ADF806402023ADF808300DF10B
:103460000E00FFF721FF032101A8FFF725FF3523F9
:10347000ADF80E300125ADF804500DF10E00FFF748
:1034800013FF294601A8FFF717FF642001F006FC8F
:103490004423ADF80E30ADF80440ADF806400DF110
:1034A0000E00FFF701FF022101A8FFF705FF6420CE
:1034B00001F0F4FB05B030BD3032002008B53220F9
:1034C00001F0ECFB08BD00B583B02923ADF8063050
:1034D0000DF10600FFF7E8FE03B05DF804FB000005
:1034E000032803D8DFE800F004070D0A0020704726
:1034F000054B18687047044B58687047024B986832
:1035000070474FF4963070473032002038B5054C84
:103510000825A562782001F0C1FBA561782001F0A3
:10352000BDFB38BD000C00482DE9F04105460E46B4
:10353000174698460220FFF7D3FF04467B1BA8EBF3
:10354000060C0CF1010C03FB0CCC604500D3644667
:1035500043463A4631462846FFF7F6FE2146BDF877
:103560001800FFF7B9FEBDE8F08184B070B504AC77
:1035700084E80F00002522E00134032C1EDC049AAD
:1035800029462046FFF7F4F904AB03EB4000C68858
:10359000002EF1D00E982044013800EB80000F99E6
:1035A000294401EB81010A231A4649004000FFF734
:1035B000CBFE64213046FFF78FFEDDE70135032D9A
:1035C00001DC0024D9E7BDE8704004B070472DE964
:1035D000F04180460F4600252EE004EB840005EB09
:1035E00085010A231A4649004000FFF7ADFE642119
:1035F0004DF62450FFF770FE0134202C1BDC05EB48
:10360000051304EB4303013338F8136057F82530F2
:10361000202BE2D0002EEFD004EB840005EB8501D7
:103620000A231A4649004000FFF78EFE6421304607
:10363000FFF752FEE0E70135182D01DC0024DCE73E
:10364000BDE8F08184B000B589B00DF1280C8CE89C
:103650000F00EC460DF1380EBEE80F00ACE80F008D
:103660009EE80F008CE80F000AAB0FCBFFF77DFF41
:1036700017991698FFF7ABFF09B05DF804EB04B09B
:1036800070470000012803D0034B40229A62704724
:10369000014B40229A6170470004004808B5F023AE
:1036A0004FF4A07200210846FFF74EFE02490020A9
:1036B000FFF712FE08BD00BF312E010008B5FFF76D
:1036C00025FF03215520FFF78DFEFFF7FCFEFFF7D6
:1036D000E5FFFFF7F3FE0120FFF7D4FF08BD000070
:1036E0000160426083600421C1620163053A426364
:1036F000053B836342628362012380F8603080F877
:103700006130002343640365C36443658365C36517
:1037100045F65D42C2664FF6FF724266836683617C
:10372000C361036208E003F10E0200EBC202002154
:10373000516011720133DBB2022BF4D9014B1860D6
:10374000012070473C32002000B5074B1B6803F195
:10375000440C8646BEE80F00ACE80F009EE8070068
:103760008CE807005DF804FB3C3200202DE9F043B3
:1037700083B00646884691461D460A9F824201DB79
:1037800081461646454502DB2B4645469846104B7A
:103790001B6893F8802012F0020F15D0DC6F0097A1
:1037A0004346324629464846A04768B903B0BDE8BB
:1037B000F083074B1B681B683A462946204698470A
:1037C0000134A642F5DA0135A845EFDB4C46F8E7AF
:1037D0003C32002000B583B0064B1B685A689B68DA
:1037E0000090013B013A00210846FFF7BFFF03B0FC
:1037F0005DF804FB3C320020014B1B6858667047A3
:103800003C320020014B1B68986670473C32002018
:103810002DE9F04F87B0039111461F46DDF8448033
:10382000FC2824D8D62819D3A0F1D603262B1ED8DD
:10383000DFE803F0601D1D1D1D1D641D1D1D1D1DE8
:103840001D1D661D1D1D1D1D1D1D1D1D1D1D1D1D5F
:103850001D1D1D1D6A1D1D1D1D1D6200B52851D099
:10386000C42801D18E2002E0B02800D1F8200446FF
:10387000D8F81030984274D3D8F81420904270D8F9
:103880008B46D8F80820002A6BD0D008019012F09F
:10389000070F01D001300190D8F81800002835D06A
:1038A000E51A405D0590A348006890F8885015F02F
:1038B000020F00F0A280D0F884500398059BC21834
:1038C000D8F80C300B44013B013AA847814698F8E0
:1038D0000430002B43D1D8F81030E31AD8F80C206C
:1038E00002FB03F3019A02FB03F300220392DDF8CB
:1038F00040B02BE09920BAE78120B8E79A20B6E7DC
:103900008420B4E7E620B2E79420B0E70592CAE746
:103910005846C8476D08013E0134072C06D82EB121
:1039200015F0010FF4D03846C847F3E70AF1010A51
:10393000029B019A924506D2D8F80020591C0291A8
:10394000D55C0024E9E7039A01320392D8F80C20F1
:1039500003998A4205D9059E4FF0000AE9E7012B39
:1039600002D007B0BDE8F08FD8F81030E31AD8F8CD
:103970000C2002FB03F3D8F8082002FB03F3002617
:10398000DDF814B0109D32E0D8F8002003F1010AF0
:10399000D15CF8B25FFA85FCC1F5807303FB0CFCC7
:1039A00001FB00C0C0F3072207F47F4005F47F4C01
:1039B0000CFB03FC00FB01C0000A00F47F40104335
:1039C00007F47F0C05F47F0203FB02F20CFB0123DA
:1039D0001B0A03F47F031843C847013453465C4570
:1039E000D2D3D8F80820A2EB0B0213440136D8F842
:1039F0000C20B242B5D90024F1E798F80410002950
:103A000041D1E31AD8F80C2002FB03F3019A02FB20
:103A100003F300220492BA462AE0464B1B681B6857
:103A2000109A5946384698476D080137013E0134CF
:103A3000072C0BD856B115F0010FEED03D4B1B688B
:103A40001B685246594638469847EDE709F1010987
:103A5000029B019A914506D2D8F80020591C029188
:103A6000D55C0024E4E70BF1010B049A01320492C7
:103A7000D8F80C2004998A427FF673AF039F059E05
:103A80004FF00009E5E701297FF46BAFE31AD8F89E
:103A90000C1001FB03F302FB03F34FF00009CDF818
:103AA0000490DDF814A0109E3BE0D8F8002003F14C
:103AB0000109D05CFAB2F1B2C0F5807303FB01F1E9
:103AC00000FB0212C2F3072207F47F4106F47F4C89
:103AD0000CFB03FC01FB00C1090A01F47F41114307
:103AE00007F47F0206F47F0C0CFB03F302FB0032A9
:103AF000120A02F47F020F4B1B681B680A435946E7
:103B000028469847013501344B465445CDD3D8F863
:103B10000820A2EB0A0213440BF1010B019A0132B7
:103B20000192D8F80C2001998A427FF61AAF039DC2
:103B30000024EAE73C32002010B582B0044C24682F
:103B400044340194049C0094FFF762FE02B010BD5F
:103B50003C3200202DE9F04383B080460F461546E5
:103B6000064611E066680FE094F84C301EE0636E84
:103B7000A26E00923A463146FFF7DEFF134B1B68F8
:103B800093F9603099444E442878D8B101350F4BF1
:103B90001C68636D9842F7D3A26D9042F4D80A284E
:103BA000E0D0E26D002ADFD0C31AD35C6268994688
:103BB00033449A42DBDC236D94F9612013441F44A3
:103BC0004646D4E703B0BDE8F08300BF3C32002096
:103BD000022807D8044B1B680E3003EBC00041607D
:103BE00003230372704700BF3C32002002280FD825
:103BF000084B1A6800F10E0302EBC3031B7A13F0A3
:103C0000010F05D00E3002EBC00043F00203037237
:103C1000704700BF3C32002038B512F4804F43D0CB
:103C20000468B4F8503091F800C04FEACC0E1EFA88
:103C300083F32344B3F80244C4F309048B69A34219
:103C400028D31B1B8B618B697BB9056835F82C3039
:103C50009BB223F4804323F0700383F4005343F4B6
:103C6000004343F0800325F82C3012F0400F0ED0B3
:103C700002680D7832F825309BB223F4E04323F03C
:103C8000700343F4004343F0C00322F8253024B905
:103C9000204638BD00238B61D5E723460A89496950
:103CA000006805F061FBF3E70468B4F8503091F860
:103CB00000C04FEACC0E1EFA83F32344B3F8064447
:103CC000C4F309048B69A3422FD31B1B8B618B693F
:103CD0007BB9056835F82C309BB223F4804323F080
:103CE000700383F4005343F4004343F0800325F84A
:103CF0002C3012F0400F0FD1026891F800C032F85A
:103D00002C309BB223F4E04323F0700343F40043D0
:103D100043F0C00322F82C30002CB9D023464A8946
:103D20004969006805F020FBB2E700238B61CEE70C
:103D300000286DD030B587B0044690F8A9323BB169
:103D4000032384F8A932206804F0ECFB00231FE071
:103D500080F8A832FFF70EF8F2E75A1C02EB820156
:103D600004EBC1010120487002EB820104F83130FC
:103D700003EB830104EBC101CB8602EB820C04EB65
:103D8000CC0C00208CF803008863C8630864D3B2AD
:103D900060688342E1D3002316E003EB830204EB67
:103DA000C202002182F8691182F8683182F86B1131
:103DB000C2F87811C2F87C1103EB830204EBC20253
:103DC000C2F880110133DBB29842E6D8A4465CF811
:103DD000105BEE46BCE80F00AEE80F00DCF80030E8
:103DE000CEF80030231D0ECB284604F0A5FB00239F
:103DF00084F82430012384F8A932E369012B02D02E
:103E0000002007B030BD204600F0E8FE0020F8E7B3
:103E10000120704790F8A832012B0ED010B504464F
:103E2000012380F8A832006804F073FB206804F0D6
:103E3000C8FE002084F8A80210BD0220704770B5AB
:103E400005460C46164612F0400F00F00981026844
:103E5000B2F850300978C80010FA83F31344B3F86D
:103E60000224C2F30902A369934251D99B1AA361A8
:103E7000A369002B68D16378002B4CD12A68B2F873
:103E8000503012FA83F30344B3F8022492B222F4BE
:103E9000F84292B2A3F80224B3F802246FEA424235
:103EA0006FEA524292B2A3F8022429686278002A8B
:103EB0003DD1B1F8503011FA83F3227803EBC203FD
:103EC000B3F8062492B222F4F84292B2A3F8062480
:103ED000B3F806246FEA42426FEA524292B2A3F864
:103EE000062421782846FEF789FF16F4804F40D03B
:103EF0002A68217832F821309BB223F4E04323F082
:103F0000700343F4404343F0800322F8213030E053
:103F10000023A361ACE7012BC7D12A68B2F8503067
:103F200012FA83F303440022A3F80224BDE7012A16
:103F3000D7D1B1F8503011FA83F3217803EBC103E4
:103F40000022A3F80624CCE716F4804F0DD0286891
:103F500030F821309BB223F4E04323F0700343F4A4
:103F6000404343F0800320F8213094F82430012BA3
:103F700012D02A68217832F821309BB223F4E04332
:103F800023F0400383F0300343F4004343F0800305
:103F900022F82130002070BD636913446361E36936
:103FA0001344E361216A236999421BD3C91A216230
:103FB0006278002A3FD12968B1F8502011FA82F2C4
:103FC000217802EBC1023E2B18D9590913F01F0FBB
:103FD00000D101396FEAC1616FEA514189B2A2F89B
:103FE00002142AE021B9002384F824301346DFE7C5
:103FF000002384F8243023620B46D9E78BB9B2F84A
:10400000021489B221F4F84189B2A2F80214B2F87C
:1040100002146FEA41416FEA514189B2A2F80214D9
:104020000BE0590813F0010F00D00131890289B269
:10403000A2F8021401E0012A06D09BB2228961692C
:10404000286804F0CDFD94E72968B1F8502011FAF2
:1040500082F2217802EBC10299B2A2F80214ECE7D5
:104060000268B2F850300978C80010FA83F313449C
:10407000B3F80624C2F30902A369934252D39B1AF0
:10408000A361A369002B69D16378002B4DD12A6805
:10409000B2F8503012FA83F31844B0F802349BB2ED
:1040A00023F4F8439BB2A0F80234B0F802346FEA6C
:1040B00043436FEA53439BB2A0F802342968627805
:1040C000002A3ED1B1F8503011FA83F3227803EB85
:1040D000C203B3F8062492B222F4F84292B2A3F8D3
:1040E0000624B3F806246FEA42426FEA524292B2C3
:1040F000A3F8062421782846FEF780FE16F4804FA8
:104100007FF437AF2A68217832F821309BB223F44C
:10411000E04323F0700343F4404343F0800322F86C
:10412000213026E70023A361ABE7012BC6D12A6823
:10413000B2F8503012FA83F318440023A0F8023486
:10414000BCE7012AD6D1B1F8503011FA83F32178B7
:1041500003EBC1030022A3F80624CBE716F4804F3B
:104160000DD1286830F821309BB223F4E04323F0CE
:10417000700343F4404343F0800320F8213094F867
:104180002430012B7FF4F5AE636913446361E36966
:104190001344E361216A236999421BD3C91A21623E
:1041A00029686278002A3ED1B1F8502011FA82F2D3
:1041B000217802EBC1023E2B18D9590913F01F0FC9
:1041C00000D101396FEAC1616FEA514189B2A2F8A9
:1041D00006142AE021B9002384F824301346DFE7CF
:1041E0000023236284F824300B46D9E78BB9B2F858
:1041F000061489B221F4F84189B2A2F80614B2F883
:1042000006146FEA41416FEA514189B2A2F80614DF
:104210000BE0590813F0010F00D00131890289B277
:10422000A2F8061401E0012A06D09BB262896169F6
:10423000286804F0D5FC9CE6B1F8502011FA82F20F
:10424000217802EBC10299B2A2F80614EDE72DE93C
:10425000F0410546CAE003889BB223F4E14323F012
:1042600070036FEA43436FEA53439BB203802968AC
:10427000B1F8503095F82820D20012FA83F30B449D
:10428000B3F80234C3F309036B64EA6B1344EB63C2
:1042900000212846FEF7B2FD95F82430002B00F0EF
:1042A000A5802B6C002B40F0A18095F824302A6863
:1042B00043F08003A2F84C30002385F8243095E0C9
:1042C000B0F8503095F86821D20012FA83F3034415
:1042D000B3F80634C3F30903C5F88431B5F86E2189
:1042E00005F52C7105F040F82A68138823F0700357
:1042F0001B051B0D43F0800313802846FEF76AFD63
:1043000074E089B9B3F8062492B222F4F84292B26A
:10431000A3F80624B3F806246FEA42426FEA524239
:1043200092B2A3F80624BFE04A0811F0010F00D0B2
:104330000132920292B2A3F80624B5E030F824309C
:104340009EB213F4004F40F0BE8016F0800F4DD0A7
:10435000621C02EB820105EBC101286830F82430B1
:104360009BB223F4E14323F070036FEA43436FEA07
:1043700053439BB220F82430CB78022B00F0A78166
:1043800004EB840305EBC30300221A6493F8343072
:1043900023B316F0400F00F063814B78002B40F000
:1043A0004C812A68B2F8503012FA83F3621C02EB97
:1043B000820215F8322003EBC203B3F8022492B252
:1043C00022F4F84292B2A3F80224B3F802246FEA6E
:1043D00042426FEA524292B2A3F80224013404EB43
:1043E000840415F834102846FEF708FD2868B0F854
:1043F000443013F4004F00F0AE81B0F84440A3B253
:1044000014F00F049AD113F0100F3FF424AF038877
:104410009AB213F4006F7FF453AF12F4004FE5D05B
:10442000038823F070031B051B0D43F080030380FA
:104430002868B0F8503095F86821D20012FA83F35A
:104440000344B3F80634C3F30903C5F884318BB1D0
:10445000D5F87C1171B1B5F86E2104F085FFD5F85F
:104460008421D5F87C311344C5F87C3100212846DD
:10447000FEF7B8FC2B681A8812F4006FB6D1B3F8B7
:10448000502013FA82F3D5F878113E297FF639AF20
:104490004A0911F01F0F00D1013A6FEAC2626FEAB8
:1044A000524292B2A3F806242A6813889BB223F4DE
:1044B000804323F0700383F4405343F4004343F0FC
:1044C0008003138092E730F8243023F070031B053B
:1044D0001B0D43F0800320F8243004EB8401C90055
:1044E00001F5B47105EB010804EB840305EBC3038C
:1044F00093F87431002B40D12868B0F8503004EBA9
:10450000840205EBC20292F86821D20012FA83F30A
:104510000344B3F80674C7F3090717BB04EB84031D
:1045200005EBC303D3F884213A44C3F88421D3F8BC
:104530007C213A44C3F87C21D3F880313BB104EBB1
:10454000840305EBC303D3F878319F4270D204EBA8
:10455000840305EBC30393F868112846FEF742FC79
:10456000F3E604EB840105EBC1013B46B1F86E2193
:10457000D1F87C1104F0F8FED0E704EB840305EBDE
:10458000C30393F86B31022B33D0296804EB840208
:1045900005EBC20292F8680131F820309BB223F497
:1045A000E04323F0700343F4004343F0C00321F8D9
:1045B0002030286892F8683130F8232012F4804FB8
:1045C0001ED0B0F85020DB0013FA82F30344B3F896
:1045D0000274C7F30907002FA0D004EB840105EB98
:1045E000C1013B46B1F87021D1F87C1104F0BCFE4A
:1045F00094E7324641462846FFF70EFB07468DE713
:10460000B0F85020DB0013FA82F30344B3F80674C9
:10461000C7F30907002F81D004EB840105EBC1012A
:104620003B46B1F87221D1F87C1104F09DFE75E78C
:104630004146286804F0E8FA87E6012B7FF4CEAE05
:104640002A68B2F8503012FA83F3621C02EB82023D
:1046500015F8322003EBC2030022A3F80224BDE6C2
:104660002968631C03EB830305EBC3035A78E2B9A3
:10467000B1F8503011FA83F3621C02EB820215F894
:10468000322003EBC203B3F8062492B222F4F842BC
:1046900092B2A3F80624B3F806246FEA42426FEA06
:1046A000524292B2A3F8062498E6012A7FF496AE0D
:1046B000B1F8503011FA83F3621C02EB820215F854
:1046C000322003EBC2030022A3F8062486E616F488
:1046D000807F3BD12868B0F85030621C02EB820228
:1046E00015F83260F20012FA83F30344B3F802348F
:1046F000C3F3090304EB840205EBC202126C9A4275
:1047000010D904EB840705EBC707D21A3A6404EB0F
:10471000840205EBC202126C5AB931462846FEF7F4
:104720006DFB63E604EB840205EBC202002717640D
:10473000EDE704EB840205EBC202D66B1E44D663A0
:10474000546C2344536404F05FFA4FE63246284623
:10475000FFF775FB4AE60020BDE8F08190F8A8322B
:10476000012B0DD010B50446012380F8A83280F843
:104770002410006804F01FFA002084F8A80210BD7D
:104780000220704710B50446006804F025FA10F4C2
:10479000004F23D110F4806F24D110F4804F32D118
:1047A00010F4005F39D110F4805F40D110F4006F35
:1047B00067D110F0800F40F0818010F4007F40F04E
:1047C000AD8010F4807F27D02268B2F844309BB2CD
:1047D00023F480739BB2A2F844301DE02046FFF71B
:1047E00036FD19E02268B2F844309BB223F48063AE
:1047F0009BB2A2F844302046FEF711FB0021204670
:10480000FFF7ACFF08E02268B2F844309BB223F413
:1048100080439BB2A2F8443010BD2268B2F8443005
:104820009BB223F400539BB2A2F84430F4E7226811
:10483000B2F840309BB223F004039BB2A2F84030A0
:104840002268B2F840309BB223F008039BB2A2F872
:10485000403094F8E032012B0CD02046FEF702FBEA
:104860002268B2F844309BB223F480539BB2A2F882
:104870004430D1E7002184F8E0122046FEF7AAFB7D
:10488000EBE72268B2F840309BB243F00803A2F88D
:1048900040302268B2F844309BB223F400639BB2EC
:1048A000A2F844302268B2F840309BB243F00403CF
:1048B000A2F840302046FEF7C5FAADE72268B2F80C
:1048C00044309BB223F080039BB2A2F8443094F8AA
:1048D000E032FBB92268B2F840309BB243F00403E7
:1048E000A2F840302268B2F840309BB243F008038F
:1048F000A2F84030012184F8E0122368B3F8543064
:10490000C3F38D0303F03C03C4F8E4322046FEF702
:1049100061FB81E72046FEF795FA7DE72268B2F851
:1049200044309BB223F400739BB2A2F8443020467B
:10493000FEF76FFA70E710B504468C4611F0800F51
:104940002AD101F0070000EB8001C90001F5B47E17
:1049500004EB0E0100EB800004EBC0004FF0000EF2
:1049600080F869E10CF0070C81F800C00A61CB7097
:104970004A780AB1A1F80EC0022B19D094F8A832D7
:10498000012B18D0012384F8A832206803F0E5FD3C
:10499000002084F8A80210BD01F00700013000EBF0
:1049A000800104EBC1014FF0010E81F801E0D9E76D
:1049B00000230B71E2E70220EDE710B504460B4639
:1049C00011F0800F1FD101F0070202EB8201C90034
:1049D00001F5B471014402EB820200EBC202002037
:1049E00082F8690103F007030B7094F8A832012BD9
:1049F00013D0012384F8A832206803F07BFF002045
:104A000084F8A80210BD01F00702013202EB820116
:104A100000EBC10101204870E4E70220F2E710B585
:104A200001F0070404EB8401C90001F5B4710144ED
:104A300004EB840C00EBCC0CCCF87C21CCF880315E
:104A40000023CCF884318CF869318CF8684124B9A2
:104A5000006804F0D9F8002010BD006804F0D4F814
:104A6000F9E701F0070101EB810100EBC101D1F889
:104A70008401704710B501F0070404F1010C0CEB40
:104A80008C0100EBC10104EB840E00EBCE0ECEF8DE
:104A90003C20CEF8403001228EF84C20CEF8483031
:104AA0000023CEF844304A700CEB8C0C00F83C40EC
:104AB00024B9006804F0A8F8002010BD006804F0D4
:104AC000A3F8F9E70B4601F0070241688A422AD8A9
:104AD00010B5044613F0800F1DD103EB8301C9000C
:104AE00001F5B471014403EB830300EBC303002021
:104AF00083F8690101238B700A7094F8A832012BA6
:104B000013D0012384F8A832206803F0DEFF0020D0
:104B100084F8A80210BD531C03EB830100EBC10114
:104B200001204870E6E7012070470220F2E70B46BB
:104B300001F00F014268914230D810B5044613F0DD
:104B4000800F21D103F0070202EB8201C90001F5B9
:104B5000B471014402EB820200EBC202002082F831
:104B6000690100228A7003F007030B7094F8A832E1
:104B7000012B15D0012384F8A832206803F0CAFF66
:104B8000002084F8A80210BD03F00702013202EBF6
:104B9000820100EBC10101204870E2E7012070476B
:104BA0000220F0E711F0800F0BD001F00701013176
:104BB00001EB810100EBC10152B90A73CB800020E7
:104BC000704701EB8101C90001F5B4710144F3E7BD
:104BD00001220A730B811B0C4B81F0E7034602682C
:104BE0000121C0F8E812002083F8E002B2F8543046
:104BF0009BB20B43A2F85430B2F854309BB243F04E
:104C00000203A2F854307047104B1B680BB9012007
:104C1000704710B504464FF47A70B0FBF3F30C4ABA
:104C20001068B0FBF3F000F0E3FF68B90F2C01D976
:104C300001200AE0002221464FF0FF3000F092FFF1
:104C4000044B1C60002000E0012010BD6C0200201D
:104C5000740200207002002010B5032000F070FFE5
:104C60000020FFF7D1FF10B10124204610BD0446FB
:104C7000FDF76AFFF9E70000034A13680349096872
:104C80000B441360704700BF403200206C020020CC
:104C9000014B1868704700BF4032002038B5044609
:104CA000FFF7F6FF0546B4F1FF3F02D0044B1B6847
:104CB0001C44FFF7EDFF401BA042FAD338BD00BFF4
:104CC0006C020020124BDA6802F00302D868C0F3CD
:104CD0000310431C032A11D00E48B0FBF3F00C4B19
:104CE000DB68C3F3062303FB00F0094BDB68C3F367
:104CF000416301335B00B0FBF3F070470648B0FB43
:104D0000F3F0034BDB68C3F3062303FB00F0ECE78F
:104D1000001002400024F40000127A00002800F085
:104D2000548270B582B00446036813F0010F37D087
:104D3000A44A936803F00C03D26802F003020C2B20
:104D400023D0082B23D06368B3F5803F4ED0B3F552
:104D5000A02F51D09B4B1A6822F480321A601A6837
:104D600022F480221A606368002B52D0FFF790FF74
:104D70000546944B1B6813F4003F11D1FFF788FFE1
:104D8000401B6428F5D9032028E2032AD9D18D4B92
:104D90001B6813F4003F03D06368002B00F01782F8
:104DA000236813F0020F5DD0864A936803F00C036A
:104DB000D26802F003020C2B3AD0042B3AD0E368FD
:104DC000002B75D07F4A136843F480731360FFF79C
:104DD0005FFF05467B4B1B6813F4806F5FD1FFF7C5
:104DE00057FF401B0228F5D90320F7E1754A1368E5
:104DF00043F480331360B6E703F18043A3F53C33FB
:104E00001A6842F480221A601A6842F480321A60EA
:104E1000A9E7FFF73DFF05466A4B1B6813F4003F07
:104E2000BED0FFF735FF401B6428F5D90320D5E13C
:104E3000022AC2D1634B1B6813F4806F03D0E3686E
:104E4000002B00F0C6815F4A536823F0FE432169BE
:104E500043EA016353605C4B1868FFF7D5FE0028F6
:104E600040F0B981236813F0080F4CD063699BB3FD
:104E7000544AD2F8943043F00103C2F89430FFF75B
:104E800007FF05464F4BD3F8943013F0020F3AD189
:104E9000FFF7FEFE401B0228F4D903209EE1494A99
:104EA000536823F0FE43216943EA01635360D9E765
:104EB000444A136823F480731360FFF7E9FE054644
:104EC000404B1B6813F4806FCCD0FFF7E1FE401B12
:104ED0000228F5D9032081E13A4AD2F8943023F030
:104EE0000103C2F89430FFF7D3FE0546354BD3F8E3
:104EF000943013F0020F06D0FFF7CAFE401B0228C1
:104F0000F4D903206AE1236813F0040F00F08180D4
:104F10002C4B9B6D13F0805F36D12A4B9A6D42F07B
:104F200080529A659B6D03F080530193019B01258C
:104F3000264B1B6813F4807F28D0A368012B39D03F
:104F4000052B45D01F4BD3F8902022F00102C3F867
:104F50009020D3F8902022F00402C3F89020A36898
:104F6000002B43D0FFF794FE0646164BD3F8903043
:104F700013F0020F4CD1FFF78BFE801B41F28833F8
:104F80009842F2D9032029E10025D1E70F4A13689E
:104F900043F480731360FFF77BFE06460B4B1B68E0
:104FA00013F4807FC9D1FFF773FE801B0228F5D967
:104FB000032013E1034AD2F8903043F00103C2F812
:104FC0009030CCE7001002407002002000700040DA
:104FD0008A4BD3F8902042F00402C3F89020D3F813
:104FE000902042F00102C3F89020B8E7FFF750FE8E
:104FF0000646824BD3F8903013F0020F08D0FFF72B
:1050000047FE801B41F288339842F2D90320E5E045
:10501000E5B9236813F0200F35D0A369E3B1774ACF
:10502000D2F8983043F00103C2F89830FFF730FE11
:105030000546724BD3F8983013F0020F23D1FFF7D7
:1050400027FE401B0228F4D90320C7E06B4A936D6A
:1050500023F080539365DCE7684AD2F8983023F058
:105060000103C2F89830FFF713FE0546634BD3F8EF
:10507000983013F0020F06D0FFF70AFE401B0228FB
:10508000F4D90320AAE0E369002B00F0A6805B4A74
:10509000926802F00C020C2A69D0022B1DD0574BEB
:1050A0001A6822F080721A60DA6822F00302DA606D
:1050B000DA6822F0887222F48032DA60FFF7E8FDC5
:1050C00004464E4B1B6813F0007F4ED0FFF7E0FD07
:1050D000001B0228F5D9032080E0484A136823F01A
:1050E00080731360FFF7D4FD0546444B1B6813F033
:1050F000007F06D0FFF7CCFD401B0228F5D9032026
:105100006CE03E4AD3683E491940236A606A013820
:1051100043EA0013A06A43EA0023206B40080138E9
:1051200043EA4053606B4008013843EA4063E06A59
:1051300043EAC0630B43D360136843F0807313608A
:10514000D36843F08073D360FFF7A2FD04462B4B76
:105150001B6813F0007F06D1FFF79AFD001B0228A1
:10516000F5D903203AE0002038E0002036E0012B9A
:1051700036D0224BDB6803F00301226A914231D121
:1051800003F0F002616A0139B2EB011F2CD103F484
:10519000FE42A16AB2EB012F28D103F07842E16A06
:1051A000B2EBC16F24D103F4C001226B5208013A63
:1051B000B1EB425F1ED103F0C063626B5208013A4B
:1051C000B3EB426F18D1002008E0012070470120A6
:1051D00004E0012002E0012000E0002002B070BDE8
:1051E0000120FBE70120F9E70120F7E70120F5E7BF
:1051F0000120F3E70120F1E70120EFE70010024072
:105200000C809F011E4B9B6803F00C03042B33D0D2
:105210001B4B9B6803F00C03082B2FD0184B9B688B
:1052200003F00C030C2B01D000207047144BDA68FC
:1052300002F00302D868C0F30310431C032A11D004
:105240001048B0FBF3F00E4BDB68C3F3062303FBFF
:1052500000F00B4BDB68C3F3416301335B00B0FB31
:10526000F3F070470848B0FBF3F0054BDB68C3F37D
:10527000062303FB00F0ECE7024870470248704742
:10528000001002400024F40000127A00002800F010
:10529000E680F8B50C460546744B1B6803F00F0317
:1052A0008B420BD2714A136823F00F030B43136038
:1052B000136803F00F038B4240F0D3802E6816F082
:1052C00001065FD06B68032B2FD0022B4DD0684BAB
:1052D0001B6813F4806F00F0C680FFF793FF654BE7
:1052E00098424DD9624A936823F0F00343F080035B
:1052F000936080265E4A936823F0030369680B433A
:105300009360FFF7C5FC0746594B9B6803F00C03FD
:105310006A68B3EB820F35D0FFF7BAFCC01B41F2CD
:1053200088339842F0D9032078E0514B1B6813F082
:10533000007F01D1012071E0FFF7C4FC4D4B984282
:105340001AD94B4B9B6813F0F00F05D02E6816F05E
:105350000206CFD0AB688BB9454A936823F0F003BF
:1053600043F0800393608026C4E7414B1B6813F42D
:10537000003FB2D1012051E00026BBE70026B9E78B
:105380000026B7E72B6813F0020F48D013F0040F84
:1053900004D0374A936843F4E06393602B6813F0BA
:1053A000080F06D0324A936823F47C5343F4E06339
:1053B00093602F4A936823F0F003A9680B4393602E
:1053C0002A4B1B6803F00F03A34230D82B6813F05D
:1053D000040F06D0264A936823F4E063E9680B4380
:1053E00093602B6813F0080F07D0214A936823F4C9
:1053F0006053296943EAC1039360FFF703FF1C4B25
:105400009B68C3F303131C4AD35C03F01F03D8400B
:105410001A4B18601A4B1868FFF7F6FBF8BD802E80
:10542000CED1134A936823F0F0039360C8E70F4A84
:10543000136823F00F0323431360FFF729FC06468C
:105440000A4B1B6803F00F03A342BFD0FFF720FCF9
:10545000801B41F288339842F2D90320DEE7012015
:1054600070470120DAE70120D8E700BF00200240A2
:105470000010024000B4C40400BD01087402002002
:1054800070020020014B1868704700BF74020020B2
:1054900008B5FFF7F7FF054B9B68C3F30223044AE7
:1054A000D35C03F01F03D84008BD00BF00100240CA
:1054B00010BD010808B5FFF7E5FF054B9B68C3F376
:1054C000C223044AD35C03F01F03D84008BD00BFC9
:1054D0000010024010BD0108F0B583B00446036817
:1054E00013F4002F6ED0354B9B6D13F0805F1ED1EF
:1054F000324B9A6D42F080529A659B6D03F0805357
:105500000193019B01262E4A136843F480731360B4
:10551000FFF7BEFB05462A4B1B6813F4807F08D1BA
:10552000FFF7B6FB401B0228F5D9032502E0002651
:10553000E9E7002545BB214BD3F8903013F44073C5
:1055400015D0226D9A4212D01C4AD2F8903023F422
:105550004073D2F8901041F48031C2F89010D2F824
:10556000901021F48031C2F89010C2F8903013F0FE
:10557000010F10D145B9114AD2F8903023F440738D
:10558000216D0B43C2F89030EEB10C4A936D23F0BD
:105590008053936517E0FFF77BFB0746074BD3F873
:1055A000903013F0020FE5D1FFF772FBC01B41F200
:1055B00088339842F2D90325DCE700BF001002408F
:1055C000007000400025236813F0010F08D09F4AA7
:1055D000D2F8883023F0030361680B43C2F88830A7
:1055E000236813F0020F08D0984AD2F8883023F0CD
:1055F0000C03A1680B43C2F88830236813F0040F32
:1056000008D0924AD2F8883023F03003E1680B4387
:10561000C2F88830236813F0080F08D08B4AD2F8FC
:10562000883023F0C00321690B43C2F88830236817
:1056300013F0100F08D0854AD2F8883023F4407355
:1056400061690B43C2F88830236813F0200F08D03B
:105650007E4AD2F8883023F44063A1690B43C2F834
:105660008830236813F0400F08D0784AD2F8883089
:1056700023F44053E1690B43C2F88830236813F0E8
:10568000800F08D0714AD2F8883023F44043216A51
:105690000B43C2F88830236813F4807F08D06B4A2C
:1056A000D2F8883023F44033616A0B43C2F8883063
:1056B000236813F4003F08D0644AD2F89C3023F0EA
:1056C0000303A16A0B43C2F89C30236813F4007FE4
:1056D00008D05E4AD2F8883023F44023E16A0B43B5
:1056E000C2F88830236813F4806F0CD0574AD2F880
:1056F000883023F44013216B0B43C2F88830236BAE
:10570000B3F5801F79D0236813F4006F0CD04F4A93
:10571000D2F8883023F44003616B0B43C2F8883021
:10572000636BB3F5800F6DD0236813F4805F0CD0EA
:10573000464AD2F8883023F04073A16B0B43C2F87D
:105740008830A36BB3F1807F61D0236813F4005FCE
:105750000CD03E4AD2F8883023F04063E16B0B4313
:10576000C2F88830E36BB3F1006F55D0236813F4AF
:10577000804F0CD0354AD2F8883023F04063216C3A
:105780000B43C2F88830236CB3F1006F49D0236813
:1057900013F4004F0CD02D4AD2F8883023F0405338
:1057A000616C0B43C2F88830636CB3F1805F3DD00D
:1057B000236813F4803F0CD0244AD2F8883023F0B9
:1057C0004043A16C0B43C2F88830A36CB3F1804F07
:1057D00031D0236813F4802F0CD01C4AD2F89C30AF
:1057E00023F44013E16C0B43C2F89C30E36CB3F537
:1057F000001F25D0284603B0F0BDD36843F48013C2
:10580000D36080E7D36843F48013D3608CE7D36818
:1058100043F48013D36098E7D36843F48013D360D4
:10582000A4E7D36843F48013D360B0E7D36843F4AC
:105830008033D360BCE7D36843F48033D360C8E7D8
:10584000D36843F48013D360D4E700BF0010024054
:10585000F0B583B0002362E085685E000324B440A5
:1058600025EA0405CC68B4402C438460446824EAEB
:105870000C0C4C68C4F300149C4044EA0C044460D3
:105880005EE0DD08083550F8256003F007044FEAB4
:10589000840C0F2404FA0CF426EA040E0C6904FAB2
:1058A0000CF444EA0E0440F8254060E0052400E0D2
:1058B000002404FA0EF42C430CF1020C554D45F86B
:1058C0002C40554CA568D44325EA02064F6817F4CE
:1058D000801F01D042EA05064F4DAE60ED6804EA34
:1058E00005064F6817F4001F01D042EA05064A4D2D
:1058F000EE606D6804EA05064F6817F4003F01D0BA
:1059000042EA0506444D6E602D682C404E6816F440
:10591000803F01D042EA05043F4A146001330A681F
:1059200032FA03F474D04FF0010C0CFA03FC1CEAB9
:105930000202F3D04C6804F00304013C012C8BD923
:105940004C6804F00304032C0CD0C4685D004FF0D5
:10595000030C0CFA05FC24EA0C0C8C68AC4044EAFD
:105960000C04C4604C6804F00304022C89D0046861
:105970004FEA430E4FF0030C0CFA0EFC24EA0C0C19
:105980004C6804F0030404FA0EF444EA0C040460C6
:105990004C6814F4403FC1D0204C256E45F0010501
:1059A0002566246E04F001040194019C4FEA930CD7
:1059B0000CF10205174C54F8255003F003044FEA8C
:1059C000840E0F2404FA0EF425EA0405B0F1904F7A
:1059D0003FF46EAF124CA04212D004F58064A04296
:1059E00010D004F58064A0420ED004F58064A0427B
:1059F0000CD004F58064A0423FF458AF062458E769
:105A0000012456E7022454E7032452E7042450E714
:105A100003B0F0BD0000014000040140001002404E
:105A200000040048002836D13E4B1B6803F4C063D5
:105A3000B3F5806F08D03B4AD2F8803023F48073EE
:105A4000C2F8803000207047364AD2F8803023F404
:105A50008073C2F88030136823F4C06343F400738A
:105A60001360314B1B68322202FB03F32F4AA2FB67
:105A700003239B0C013300E0013B2A4A526912F4D4
:105A8000806F01D0002BF7D1264B5B6913F4806F38
:105A900044D100207047B0F5007F08D0214A136838
:105AA00023F4C06343F480631360002070471D4BF0
:105AB0001B6803F4C063B3F5806F08D0194AD2F8AD
:105AC000803043F48073C2F8803000207047154A5C
:105AD000D2F8803043F48073C2F88030136823F426
